{
  "address": "0xaf6F49b132C15f5b98Be1dc0305870B24B7abbC4",
  "abi": [
    {
      "inputs": [
        {
          "internalType": "string",
          "name": "name_",
          "type": "string"
        },
        {
          "internalType": "string",
          "name": "symbol_",
          "type": "string"
        },
        {
          "internalType": "string",
          "name": "baseTokenURI_",
          "type": "string"
        }
      ],
      "stateMutability": "nonpayable",
      "type": "constructor"
    },
    {
      "anonymous": false,
      "inputs": [
        {
          "indexed": true,
          "internalType": "address",
          "name": "owner",
          "type": "address"
        },
        {
          "indexed": true,
          "internalType": "address",
          "name": "approved",
          "type": "address"
        },
        {
          "indexed": true,
          "internalType": "uint256",
          "name": "tokenId",
          "type": "uint256"
        }
      ],
      "name": "Approval",
      "type": "event"
    },
    {
      "anonymous": false,
      "inputs": [
        {
          "indexed": true,
          "internalType": "address",
          "name": "owner",
          "type": "address"
        },
        {
          "indexed": true,
          "internalType": "address",
          "name": "operator",
          "type": "address"
        },
        {
          "indexed": false,
          "internalType": "bool",
          "name": "approved",
          "type": "bool"
        }
      ],
      "name": "ApprovalForAll",
      "type": "event"
    },
    {
      "anonymous": false,
      "inputs": [
        {
          "indexed": false,
          "internalType": "uint256",
          "name": "tokenId",
          "type": "uint256"
        }
      ],
      "name": "Locked",
      "type": "event"
    },
    {
      "anonymous": false,
      "inputs": [
        {
          "indexed": false,
          "internalType": "address",
          "name": "account",
          "type": "address"
        }
      ],
      "name": "MintPaused",
      "type": "event"
    },
    {
      "anonymous": false,
      "inputs": [
        {
          "indexed": false,
          "internalType": "address",
          "name": "account",
          "type": "address"
        }
      ],
      "name": "MintUnpaused",
      "type": "event"
    },
    {
      "anonymous": false,
      "inputs": [
        {
          "indexed": true,
          "internalType": "address",
          "name": "previousOwner",
          "type": "address"
        },
        {
          "indexed": true,
          "internalType": "address",
          "name": "newOwner",
          "type": "address"
        }
      ],
      "name": "OwnershipTransferred",
      "type": "event"
    },
    {
      "anonymous": false,
      "inputs": [
        {
          "indexed": false,
          "internalType": "address",
          "name": "account",
          "type": "address"
        }
      ],
      "name": "Paused",
      "type": "event"
    },
    {
      "anonymous": false,
      "inputs": [
        {
          "indexed": false,
          "internalType": "string",
          "name": "_value",
          "type": "string"
        },
        {
          "indexed": true,
          "internalType": "uint256",
          "name": "_id",
          "type": "uint256"
        }
      ],
      "name": "PermanentURI",
      "type": "event"
    },
    {
      "anonymous": false,
      "inputs": [
        {
          "indexed": true,
          "internalType": "address",
          "name": "from",
          "type": "address"
        },
        {
          "indexed": true,
          "internalType": "address",
          "name": "to",
          "type": "address"
        },
        {
          "indexed": true,
          "internalType": "uint256",
          "name": "tokenId",
          "type": "uint256"
        }
      ],
      "name": "Transfer",
      "type": "event"
    },
    {
      "anonymous": false,
      "inputs": [
        {
          "indexed": false,
          "internalType": "uint256",
          "name": "tokenId",
          "type": "uint256"
        }
      ],
      "name": "Unlocked",
      "type": "event"
    },
    {
      "anonymous": false,
      "inputs": [
        {
          "indexed": false,
          "internalType": "address",
          "name": "account",
          "type": "address"
        }
      ],
      "name": "Unpaused",
      "type": "event"
    },
    {
      "inputs": [
        {
          "internalType": "uint256",
          "name": "",
          "type": "uint256"
        }
      ],
      "name": "_locked",
      "outputs": [
        {
          "internalType": "bool",
          "name": "",
          "type": "bool"
        }
      ],
      "stateMutability": "view",
      "type": "function"
    },
    {
      "inputs": [
        {
          "internalType": "address",
          "name": "to",
          "type": "address"
        },
        {
          "internalType": "uint256",
          "name": "tokenId",
          "type": "uint256"
        }
      ],
      "name": "approve",
      "outputs": [],
      "stateMutability": "nonpayable",
      "type": "function"
    },
    {
      "inputs": [
        {
          "internalType": "address",
          "name": "owner",
          "type": "address"
        }
      ],
      "name": "balanceOf",
      "outputs": [
        {
          "internalType": "uint256",
          "name": "",
          "type": "uint256"
        }
      ],
      "stateMutability": "view",
      "type": "function"
    },
    {
      "inputs": [
        {
          "internalType": "uint256",
          "name": "tokenId",
          "type": "uint256"
        }
      ],
      "name": "burn",
      "outputs": [],
      "stateMutability": "nonpayable",
      "type": "function"
    },
    {
      "inputs": [],
      "name": "freeze",
      "outputs": [],
      "stateMutability": "nonpayable",
      "type": "function"
    },
    {
      "inputs": [],
      "name": "freezeAllTokens",
      "outputs": [],
      "stateMutability": "nonpayable",
      "type": "function"
    },
    {
      "inputs": [
        {
          "internalType": "uint256",
          "name": "tokenId",
          "type": "uint256"
        }
      ],
      "name": "freezeToken",
      "outputs": [],
      "stateMutability": "nonpayable",
      "type": "function"
    },
    {
      "inputs": [],
      "name": "frozen",
      "outputs": [
        {
          "internalType": "bool",
          "name": "",
          "type": "bool"
        }
      ],
      "stateMutability": "view",
      "type": "function"
    },
    {
      "inputs": [
        {
          "internalType": "uint256",
          "name": "tokenId",
          "type": "uint256"
        }
      ],
      "name": "getApproved",
      "outputs": [
        {
          "internalType": "address",
          "name": "",
          "type": "address"
        }
      ],
      "stateMutability": "view",
      "type": "function"
    },
    {
      "inputs": [
        {
          "internalType": "address",
          "name": "owner",
          "type": "address"
        },
        {
          "internalType": "address",
          "name": "operator",
          "type": "address"
        }
      ],
      "name": "isApprovedForAll",
      "outputs": [
        {
          "internalType": "bool",
          "name": "",
          "type": "bool"
        }
      ],
      "stateMutability": "view",
      "type": "function"
    },
    {
      "inputs": [
        {
          "internalType": "uint256",
          "name": "tokenId",
          "type": "uint256"
        }
      ],
      "name": "locked",
      "outputs": [
        {
          "internalType": "bool",
          "name": "",
          "type": "bool"
        }
      ],
      "stateMutability": "view",
      "type": "function"
    },
    {
      "inputs": [],
      "name": "mintPaused",
      "outputs": [
        {
          "internalType": "bool",
          "name": "",
          "type": "bool"
        }
      ],
      "stateMutability": "view",
      "type": "function"
    },
    {
      "inputs": [],
      "name": "name",
      "outputs": [
        {
          "internalType": "string",
          "name": "",
          "type": "string"
        }
      ],
      "stateMutability": "view",
      "type": "function"
    },
    {
      "inputs": [],
      "name": "owner",
      "outputs": [
        {
          "internalType": "address",
          "name": "",
          "type": "address"
        }
      ],
      "stateMutability": "view",
      "type": "function"
    },
    {
      "inputs": [
        {
          "internalType": "uint256",
          "name": "tokenId",
          "type": "uint256"
        }
      ],
      "name": "ownerOf",
      "outputs": [
        {
          "internalType": "address",
          "name": "",
          "type": "address"
        }
      ],
      "stateMutability": "view",
      "type": "function"
    },
    {
      "inputs": [],
      "name": "pause",
      "outputs": [],
      "stateMutability": "nonpayable",
      "type": "function"
    },
    {
      "inputs": [],
      "name": "pauseMint",
      "outputs": [],
      "stateMutability": "nonpayable",
      "type": "function"
    },
    {
      "inputs": [],
      "name": "paused",
      "outputs": [
        {
          "internalType": "bool",
          "name": "",
          "type": "bool"
        }
      ],
      "stateMutability": "view",
      "type": "function"
    },
    {
      "inputs": [],
      "name": "renounceOwnership",
      "outputs": [],
      "stateMutability": "nonpayable",
      "type": "function"
    },
    {
      "inputs": [
        {
          "internalType": "address",
          "name": "to",
          "type": "address"
        },
        {
          "internalType": "uint256",
          "name": "tokenId",
          "type": "uint256"
        }
      ],
      "name": "safeMint",
      "outputs": [],
      "stateMutability": "nonpayable",
      "type": "function"
    },
    {
      "inputs": [
        {
          "internalType": "address",
          "name": "from",
          "type": "address"
        },
        {
          "internalType": "address",
          "name": "to",
          "type": "address"
        },
        {
          "internalType": "uint256",
          "name": "tokenId",
          "type": "uint256"
        }
      ],
      "name": "safeTransferFrom",
      "outputs": [],
      "stateMutability": "nonpayable",
      "type": "function"
    },
    {
      "inputs": [
        {
          "internalType": "address",
          "name": "from",
          "type": "address"
        },
        {
          "internalType": "address",
          "name": "to",
          "type": "address"
        },
        {
          "internalType": "uint256",
          "name": "tokenId",
          "type": "uint256"
        },
        {
          "internalType": "bytes",
          "name": "data",
          "type": "bytes"
        }
      ],
      "name": "safeTransferFrom",
      "outputs": [],
      "stateMutability": "nonpayable",
      "type": "function"
    },
    {
      "inputs": [
        {
          "internalType": "address",
          "name": "operator",
          "type": "address"
        },
        {
          "internalType": "bool",
          "name": "approved",
          "type": "bool"
        }
      ],
      "name": "setApprovalForAll",
      "outputs": [],
      "stateMutability": "nonpayable",
      "type": "function"
    },
    {
      "inputs": [
        {
          "internalType": "string",
          "name": "baseTokenURI_",
          "type": "string"
        }
      ],
      "name": "setBaseURI",
      "outputs": [],
      "stateMutability": "nonpayable",
      "type": "function"
    },
    {
      "inputs": [
        {
          "internalType": "bytes4",
          "name": "interfaceId",
          "type": "bytes4"
        }
      ],
      "name": "supportsInterface",
      "outputs": [
        {
          "internalType": "bool",
          "name": "",
          "type": "bool"
        }
      ],
      "stateMutability": "view",
      "type": "function"
    },
    {
      "inputs": [],
      "name": "symbol",
      "outputs": [
        {
          "internalType": "string",
          "name": "",
          "type": "string"
        }
      ],
      "stateMutability": "view",
      "type": "function"
    },
    {
      "inputs": [
        {
          "internalType": "uint256",
          "name": "index",
          "type": "uint256"
        }
      ],
      "name": "tokenByIndex",
      "outputs": [
        {
          "internalType": "uint256",
          "name": "",
          "type": "uint256"
        }
      ],
      "stateMutability": "view",
      "type": "function"
    },
    {
      "inputs": [
        {
          "internalType": "address",
          "name": "owner",
          "type": "address"
        },
        {
          "internalType": "uint256",
          "name": "index",
          "type": "uint256"
        }
      ],
      "name": "tokenOfOwnerByIndex",
      "outputs": [
        {
          "internalType": "uint256",
          "name": "",
          "type": "uint256"
        }
      ],
      "stateMutability": "view",
      "type": "function"
    },
    {
      "inputs": [
        {
          "internalType": "uint256",
          "name": "tokenId",
          "type": "uint256"
        }
      ],
      "name": "tokenURI",
      "outputs": [
        {
          "internalType": "string",
          "name": "",
          "type": "string"
        }
      ],
      "stateMutability": "view",
      "type": "function"
    },
    {
      "inputs": [],
      "name": "totalSupply",
      "outputs": [
        {
          "internalType": "uint256",
          "name": "",
          "type": "uint256"
        }
      ],
      "stateMutability": "view",
      "type": "function"
    },
    {
      "inputs": [
        {
          "internalType": "address",
          "name": "from",
          "type": "address"
        },
        {
          "internalType": "address",
          "name": "to",
          "type": "address"
        },
        {
          "internalType": "uint256",
          "name": "tokenId",
          "type": "uint256"
        }
      ],
      "name": "transferFrom",
      "outputs": [],
      "stateMutability": "nonpayable",
      "type": "function"
    },
    {
      "inputs": [
        {
          "internalType": "address",
          "name": "newOwner",
          "type": "address"
        }
      ],
      "name": "transferOwnership",
      "outputs": [],
      "stateMutability": "nonpayable",
      "type": "function"
    },
    {
      "inputs": [],
      "name": "unpause",
      "outputs": [],
      "stateMutability": "nonpayable",
      "type": "function"
    },
    {
      "inputs": [],
      "name": "unpauseMint",
      "outputs": [],
      "stateMutability": "nonpayable",
      "type": "function"
    }
  ],
  "transactionHash": "0xca1d0f6a3d75273024b669413120bb522ee9a2de49cb89f464d47eccb3181b72",
  "args": [
    "Goushuin",
    "GSOUL",
    "ipfs://QmXiwK9nn4ufrS4fojftqpaFCrKiFrNkxNrr3AbvbsHV2X/"
  ],
  "numDeployments": 1,
  "solcInputHash": "e04b0269c4e95e4d7553d7a44ed5c007",
  "bytecode": "0x60806040523480156200001157600080fd5b5060405162002a4338038062002a438339810160408190526200003491620001ad565b82826000620000448382620002cd565b506001620000538282620002cd565b5050600a805462ffffff19169055506200006d336200008a565b6001600b55600d620000808282620002cd565b5050505062000399565b600a80546001600160a01b0383811663010000008181026301000000600160b81b031985161790945560405193909204169182907f8be0079c531659141344cd1fd0a4f28419497f9722a3daafe3b4186f6b6457e090600090a35050565b634e487b7160e01b600052604160045260246000fd5b600082601f8301126200011057600080fd5b81516001600160401b03808211156200012d576200012d620000e8565b604051601f8301601f19908116603f01168101908282118183101715620001585762000158620000e8565b816040528381526020925086838588010111156200017557600080fd5b600091505b838210156200019957858201830151818301840152908201906200017a565b600093810190920192909252949350505050565b600080600060608486031215620001c357600080fd5b83516001600160401b0380821115620001db57600080fd5b620001e987838801620000fe565b945060208601519150808211156200020057600080fd5b6200020e87838801620000fe565b935060408601519150808211156200022557600080fd5b506200023486828701620000fe565b9150509250925092565b600181811c908216806200025357607f821691505b6020821081036200027457634e487b7160e01b600052602260045260246000fd5b50919050565b601f821115620002c857600081815260208120601f850160051c81016020861015620002a35750805b601f850160051c820191505b81811015620002c457828155600101620002af565b5050505b505050565b81516001600160401b03811115620002e957620002e9620000e8565b6200030181620002fa84546200023e565b846200027a565b602080601f831160018114620003395760008415620003205750858301515b600019600386901b1c1916600185901b178555620002c4565b600085815260208120601f198616915b828110156200036a5788860151825594840194600190910190840162000349565b5085821015620003895787850151600019600388901b60f8161c191681555b5050505050600190811b01905550565b61269a80620003a96000396000f3fe608060405234801561001057600080fd5b50600436106102065760003560e01c80636352211e1161011a578063a22cb465116100ad578063c87b56dd1161007c578063c87b56dd14610415578063cd85cdb514610428578063d2bc37f814610430578063e985e9c514610438578063f2fde38b1461047457600080fd5b8063a22cb465146103c9578063b45a3c0e146103dc578063b6854f96146103ef578063b88d4fde1461040257600080fd5b80638456cb59116100e95780638456cb591461038e5780638da5cb5b1461039657806395d89b41146103ae578063a1448194146103b657600080fd5b80636352211e1461034f57806370a0823114610362578063715018a6146103755780637e4831d31461037d57600080fd5b806323b872dd1161019d57806342966c681161016c57806342966c68146103035780634f6ccce71461031657806355f804b3146103295780635c975abb1461033c57806362a5af3b1461034757600080fd5b806323b872dd146102d55780632f745c59146102e85780633f4ba83a146102fb57806342842e0e146102d557600080fd5b8063095ea7b3116101d9578063095ea7b31461028357806315276e621461029857806318160ddd146102bb5780631a8bd2da146102cd57600080fd5b806301ffc9a71461020b578063054f7d9c1461023357806306fdde0314610243578063081812fc14610258575b600080fd5b61021e610219366004611fe8565b610487565b60405190151581526020015b60405180910390f35b600a54610100900460ff1661021e565b61024b610554565b60405161022a9190612055565b61026b610266366004612068565b6105e6565b6040516001600160a01b03909116815260200161022a565b61029661029136600461209d565b61060d565b005b61021e6102a6366004612068565b600f6020526000908152604090205460ff1681565b6008545b60405190815260200161022a565b610296610727565b6102966102e33660046120c7565b610739565b6102bf6102f636600461209d565b61077b565b610296610811565b610296610311366004612068565b610821565b6102bf610324366004612068565b6108a1565b61029661033736600461218f565b610934565b600a5460ff1661021e565b6102966109a4565b61026b61035d366004612068565b6109b4565b6102bf6103703660046121d8565b610a14565b610296610a9a565b600a5462010000900460ff1661021e565b610296610aac565b600a54630100000090046001600160a01b031661026b565b61024b610abc565b6102966103c436600461209d565b610acb565b6102966103d73660046121f3565b610be9565b61021e6103ea366004612068565b610bf4565b6102966103fd366004612068565b610c6c565b61029661041036600461222f565b610cd6565b61024b610423366004612068565b610d1a565b610296610d6f565b610296610d7f565b61021e6104463660046122ab565b6001600160a01b03918216600090815260056020908152604080832093909416825291909152205460ff1690565b6102966104823660046121d8565b610e0f565b60006001600160e01b03198216630704183b60e11b14806104b857506001600160e01b03198216630852cd8d60e31b145b806104d357506001600160e01b03198216631e7c553160e21b145b806104ee57506001600160e01b031982166330bb02f960e11b145b8061050957506001600160e01b03198216637e4831d360e01b145b8061052457506001600160e01b031982166380ac58cd60e01b145b8061053f57506001600160e01b03198216635a2d1e0760e11b145b8061054e575061054e82610e85565b92915050565b606060008054610563906122de565b80601f016020809104026020016040519081016040528092919081815260200182805461058f906122de565b80156105dc5780601f106105b1576101008083540402835291602001916105dc565b820191906000526020600020905b8154815290600101906020018083116105bf57829003601f168201915b5050505050905090565b60006105f182610eaa565b506000908152600460205260409020546001600160a01b031690565b6000610618826109b4565b9050806001600160a01b0316836001600160a01b03160361068a5760405162461bcd60e51b815260206004820152602160248201527f4552433732313a20617070726f76616c20746f2063757272656e74206f776e656044820152603960f91b60648201526084015b60405180910390fd5b336001600160a01b03821614806106a657506106a68133610446565b6107185760405162461bcd60e51b815260206004820152603d60248201527f4552433732313a20617070726f76652063616c6c6572206973206e6f7420746f60448201527f6b656e206f776e6572206f7220617070726f76656420666f7220616c6c0000006064820152608401610681565b6107228383610f09565b505050565b61072f610f77565b610737610fd9565b565b6000818152600f6020526040902054819060ff161561076a5760405162461bcd60e51b815260040161068190612318565b61077584848461104b565b50505050565b600061078683610a14565b82106107e85760405162461bcd60e51b815260206004820152602b60248201527f455243373231456e756d657261626c653a206f776e657220696e646578206f7560448201526a74206f6620626f756e647360a81b6064820152608401610681565b506001600160a01b03919091166000908152600660209081526040808320938352929052205490565b610819610f77565b610737611066565b61082a816109b4565b6001600160a01b0316336001600160a01b0316146108955760405162461bcd60e51b815260206004820152602260248201527f4f6e6c7920746865206f776e6572206f66205342542063616e206275726e20696044820152613a1760f11b6064820152608401610681565b61089e816110b8565b50565b60006108ac60085490565b821061090f5760405162461bcd60e51b815260206004820152602c60248201527f455243373231456e756d657261626c653a20676c6f62616c20696e646578206f60448201526b7574206f6620626f756e647360a01b6064820152608401610681565b600882815481106109225761092261235d565b90600052602060002001549050919050565b61093c610f77565b600a54610100900460ff16156109945760405162461bcd60e51b815260206004820152601e60248201527f455243373231467265657a61626c653a205552492069732066726f7a656e00006044820152606401610681565b600d6109a082826123c1565b5050565b6109ac610f77565b6107376110c1565b6000818152600260205260408120546001600160a01b03168061054e5760405162461bcd60e51b8152602060048201526018602482015277115490cdcc8c4e881a5b9d985b1a59081d1bdad95b88125160421b6044820152606401610681565b60006001600160a01b038216610a7e5760405162461bcd60e51b815260206004820152602960248201527f4552433732313a2061646472657373207a65726f206973206e6f7420612076616044820152683634b21037bbb732b960b91b6064820152608401610681565b506001600160a01b031660009081526003602052604090205490565b610aa2610f77565b610737600061112a565b610ab4610f77565b610737611188565b606060018054610563906122de565b610ad3610f77565b610adc82610a14565b15610b295760405162461bcd60e51b815260206004820152601e60248201527f5342543a204f6e6c79206f6e652053425420706572206163636f756e742e00006044820152606401610681565b6000818152600f602052604090205460ff161515600103610b8c5760405162461bcd60e51b815260206004820152601f60248201527f5342543a205468652053425420697320616c7265616479206c6f636b65642e006044820152606401610681565b6000818152600f602052604090819020805460ff19166001179055517f032bc66be43dbccb7487781d168eb7bda224628a3b2c3388bdf69b532a3a161190610bd79083815260200190565b60405180910390a16109a082826111c5565b6109a03383836111df565b600080610c00836109b4565b6001600160a01b031603610c565760405162461bcd60e51b815260206004820152601960248201527f54686520616464726573732063616e6e6f742062652030782e000000000000006044820152606401610681565b506000908152600f602052604090205460ff1690565b600a54610100900460ff16610c935760405162461bcd60e51b815260040161068190612481565b807fa109ba539900bf1b633f956d63c96fc89b814c7287f7aa50a9216d0b55657207610cbe83610d1a565b604051610ccb9190612055565b60405180910390a250565b6000828152600f6020526040902054829060ff1615610d075760405162461bcd60e51b815260040161068190612318565b610d13858585856112ad565b5050505050565b60606000610d2783611325565b90506000815111610d475760405180602001604052806000815250610d68565b80604051602001610d5891906124c3565b6040516020818303038152906040525b9392505050565b610d77610f77565b610737611375565b600a54610100900460ff16610da65760405162461bcd60e51b815260040161068190612481565b6000610db160085490565b905060015b8181116109a057807fa109ba539900bf1b633f956d63c96fc89b814c7287f7aa50a9216d0b55657207610de883610d1a565b604051610df59190612055565b60405180910390a280610e0781612502565b915050610db6565b610e17610f77565b6001600160a01b038116610e7c5760405162461bcd60e51b815260206004820152602660248201527f4f776e61626c653a206e6577206f776e657220697320746865207a65726f206160448201526564647265737360d01b6064820152608401610681565b61089e8161112a565b60006001600160e01b0319821663780e9d6360e01b148061054e575061054e826113e1565b6000818152600260205260409020546001600160a01b031661089e5760405162461bcd60e51b8152602060048201526018602482015277115490cdcc8c4e881a5b9d985b1a59081d1bdad95b88125160421b6044820152606401610681565b600081815260046020526040902080546001600160a01b0319166001600160a01b0384169081179091558190610f3e826109b4565b6001600160a01b03167f8c5be1e5ebec7d5bd14f71427d1e84f3dd0314c0f7b2291e5b200ac8c7c3b92560405160405180910390a45050565b600a546001600160a01b0363010000009091041633146107375760405162461bcd60e51b815260206004820181905260248201527f4f776e61626c653a2063616c6c6572206973206e6f7420746865206f776e65726044820152606401610681565b600a5462010000900460ff1661103d5760405162461bcd60e51b815260206004820152602360248201527f4552433732314d696e745061757361626c653a204d696e74206e6f74207061756044820152621cd95960ea1b6064820152608401610681565b600a805462ff000019169055565b61072283838360405180602001604052806000815250610cd6565b61106e611431565b600a805460ff191690557f5db9ee0a495bf2e6ff9c91a7834c1ba4fdd244a5e8aa4e537bd38aeae4b073aa335b6040516001600160a01b03909116815260200160405180910390a1565b61089e8161147a565b600a54610100900460ff16156111195760405162461bcd60e51b815260206004820152601e60248201527f455243373231467265657a61626c653a205552492069732066726f7a656e00006044820152606401610681565b600a805461ff001916610100179055565b600a80546001600160a01b0383811663010000008181026301000000600160b81b031985161790945560405193909204169182907f8be0079c531659141344cd1fd0a4f28419497f9722a3daafe3b4186f6b6457e090600090a35050565b611190611527565b600a805460ff191660011790557f62e78cea01bee320cd4e420270b5ea74000d11b0c9f74754ebdbfc544b05a25861109b3390565b6109a082826040518060200160405280600081525061156d565b816001600160a01b0316836001600160a01b0316036112405760405162461bcd60e51b815260206004820152601960248201527f4552433732313a20617070726f766520746f2063616c6c6572000000000000006044820152606401610681565b6001600160a01b03838116600081815260056020908152604080832094871680845294825291829020805460ff191686151590811790915591519182527f17307eab39ab6107e8899845ad3d59bd9653f200f220920489ca2b5937696c31910160405180910390a3505050565b6112b733836115a0565b6113195760405162461bcd60e51b815260206004820152602d60248201527f4552433732313a2063616c6c6572206973206e6f7420746f6b656e206f776e6560448201526c1c881bdc88185c1c1c9bdd9959609a1b6064820152608401610681565b6107758484848461161f565b606061133082610eaa565b600061133a611652565b9050600081511161135a5760405180602001604052806000815250610d68565b8061136484611661565b604051602001610d5892919061251b565b600a5462010000900460ff16156113ce5760405162461bcd60e51b815260206004820152601f60248201527f4552433732314d696e745061757361626c653a204d696e7420706175736564006044820152606401610681565b600a805462ff0000191662010000179055565b60006001600160e01b031982166380ac58cd60e01b148061141257506001600160e01b03198216635b5e139f60e01b145b8061054e57506301ffc9a760e01b6001600160e01b031983161461054e565b600a5460ff166107375760405162461bcd60e51b815260206004820152601460248201527314185d5cd8589b194e881b9bdd081c185d5cd95960621b6044820152606401610681565b6000611485826109b4565b90506114958160008460016116f4565b61149e826109b4565b600083815260046020908152604080832080546001600160a01b03199081169091556001600160a01b0385168085526003845282852080546000190190558785526002909352818420805490911690555192935084927fddf252ad1be2c89b69c2b068fc378daa952ba7f163c4a11628f55a4df523b3ef908390a46109a0816000846001611700565b600a5460ff16156107375760405162461bcd60e51b815260206004820152601060248201526f14185d5cd8589b194e881c185d5cd95960821b6044820152606401610681565b611577838361170c565b61158460008484846118af565b6107225760405162461bcd60e51b81526004016106819061254a565b6000806115ac836109b4565b9050806001600160a01b0316846001600160a01b031614806115f357506001600160a01b0380821660009081526005602090815260408083209388168352929052205460ff165b806116175750836001600160a01b031661160c846105e6565b6001600160a01b0316145b949350505050565b61162a8484846119b0565b611636848484846118af565b6107755760405162461bcd60e51b81526004016106819061254a565b6060600d8054610563906122de565b6060600061166e83611b29565b600101905060008167ffffffffffffffff81111561168e5761168e612103565b6040519080825280601f01601f1916602001820160405280156116b8576020820181803683370190505b5090508181016020015b600019016f181899199a1a9b1b9c1cb0b131b232b360811b600a86061a8153600a85049450846116c257509392505050565b61077584848484611c01565b61077584848484611c89565b6001600160a01b0382166117625760405162461bcd60e51b815260206004820181905260248201527f4552433732313a206d696e7420746f20746865207a65726f20616464726573736044820152606401610681565b6000818152600260205260409020546001600160a01b0316156117c75760405162461bcd60e51b815260206004820152601c60248201527f4552433732313a20746f6b656e20616c7265616479206d696e746564000000006044820152606401610681565b6117d56000838360016116f4565b6000818152600260205260409020546001600160a01b03161561183a5760405162461bcd60e51b815260206004820152601c60248201527f4552433732313a20746f6b656e20616c7265616479206d696e746564000000006044820152606401610681565b6001600160a01b038216600081815260036020908152604080832080546001019055848352600290915280822080546001600160a01b0319168417905551839291907fddf252ad1be2c89b69c2b068fc378daa952ba7f163c4a11628f55a4df523b3ef908290a46109a0600083836001611700565b60006001600160a01b0384163b156119a557604051630a85bd0160e11b81526001600160a01b0385169063150b7a02906118f390339089908890889060040161259c565b6020604051808303816000875af192505050801561192e575060408051601f3d908101601f1916820190925261192b918101906125d9565b60015b61198b573d80801561195c576040519150601f19603f3d011682016040523d82523d6000602084013e611961565b606091505b5080516000036119835760405162461bcd60e51b81526004016106819061254a565b805181602001fd5b6001600160e01b031916630a85bd0160e11b149050611617565b506001949350505050565b826001600160a01b03166119c3826109b4565b6001600160a01b0316146119e95760405162461bcd60e51b8152600401610681906125f6565b6001600160a01b038216611a4b5760405162461bcd60e51b8152602060048201526024808201527f4552433732313a207472616e7366657220746f20746865207a65726f206164646044820152637265737360e01b6064820152608401610681565b611a5883838360016116f4565b826001600160a01b0316611a6b826109b4565b6001600160a01b031614611a915760405162461bcd60e51b8152600401610681906125f6565b600081815260046020908152604080832080546001600160a01b03199081169091556001600160a01b0387811680865260038552838620805460001901905590871680865283862080546001019055868652600290945282852080549092168417909155905184937fddf252ad1be2c89b69c2b068fc378daa952ba7f163c4a11628f55a4df523b3ef91a46107228383836001611700565b60008072184f03e93ff9f4daa797ed6e38ed64bf6a1f0160401b8310611b685772184f03e93ff9f4daa797ed6e38ed64bf6a1f0160401b830492506040015b6d04ee2d6d415b85acef81000000008310611b94576d04ee2d6d415b85acef8100000000830492506020015b662386f26fc100008310611bb257662386f26fc10000830492506010015b6305f5e1008310611bca576305f5e100830492506008015b6127108310611bde57612710830492506004015b60648310611bf0576064830492506002015b600a831061054e5760010192915050565b611c0d84848484611ca2565b600a5462010000900460ff161580611c2d57506001600160a01b03841615155b6107755760405162461bcd60e51b815260206004820152602760248201527f4552433732314d696e745061757361626c653a204d696e74696e6720697320646044820152661a5cd8589b195960ca1b6064820152608401610681565b600a54610100900460ff16156107755761077582610c6c565b611cae84848484611d15565b600a5460ff16156107755760405162461bcd60e51b815260206004820152602b60248201527f4552433732315061757361626c653a20746f6b656e207472616e73666572207760448201526a1a1a5b19481c185d5cd95960aa1b6064820152608401610681565b6001811115611d845760405162461bcd60e51b815260206004820152603560248201527f455243373231456e756d657261626c653a20636f6e7365637574697665207472604482015274185b9cd9995c9cc81b9bdd081cdd5c1c1bdc9d1959605a1b6064820152608401610681565b816001600160a01b038516611de057611ddb81600880546000838152600960205260408120829055600182018355919091527ff3f7a9fe364faab93b216da50a3214154f22a0a2b415b23a84c8169e8b636ee30155565b611e03565b836001600160a01b0316856001600160a01b031614611e0357611e038582611e42565b6001600160a01b038416611e1f57611e1a81611edf565b610d13565b846001600160a01b0316846001600160a01b031614610d1357610d138482611f8e565b60006001611e4f84610a14565b611e59919061263b565b600083815260076020526040902054909150808214611eac576001600160a01b03841660009081526006602090815260408083208584528252808320548484528184208190558352600790915290208190555b5060009182526007602090815260408084208490556001600160a01b039094168352600681528383209183525290812055565b600854600090611ef19060019061263b565b60008381526009602052604081205460088054939450909284908110611f1957611f1961235d565b906000526020600020015490508060088381548110611f3a57611f3a61235d565b6000918252602080832090910192909255828152600990915260408082208490558582528120556008805480611f7257611f7261264e565b6001900381819060005260206000200160009055905550505050565b6000611f9983610a14565b6001600160a01b039093166000908152600660209081526040808320868452825280832085905593825260079052919091209190915550565b6001600160e01b03198116811461089e57600080fd5b600060208284031215611ffa57600080fd5b8135610d6881611fd2565b60005b83811015612020578181015183820152602001612008565b50506000910152565b60008151808452612041816020860160208601612005565b601f01601f19169290920160200192915050565b602081526000610d686020830184612029565b60006020828403121561207a57600080fd5b5035919050565b80356001600160a01b038116811461209857600080fd5b919050565b600080604083850312156120b057600080fd5b6120b983612081565b946020939093013593505050565b6000806000606084860312156120dc57600080fd5b6120e584612081565b92506120f360208501612081565b9150604084013590509250925092565b634e487b7160e01b600052604160045260246000fd5b600067ffffffffffffffff8084111561213457612134612103565b604051601f8501601f19908116603f0116810190828211818310171561215c5761215c612103565b8160405280935085815286868601111561217557600080fd5b858560208301376000602087830101525050509392505050565b6000602082840312156121a157600080fd5b813567ffffffffffffffff8111156121b857600080fd5b8201601f810184136121c957600080fd5b61161784823560208401612119565b6000602082840312156121ea57600080fd5b610d6882612081565b6000806040838503121561220657600080fd5b61220f83612081565b91506020830135801515811461222457600080fd5b809150509250929050565b6000806000806080858703121561224557600080fd5b61224e85612081565b935061225c60208601612081565b925060408501359150606085013567ffffffffffffffff81111561227f57600080fd5b8501601f8101871361229057600080fd5b61229f87823560208401612119565b91505092959194509250565b600080604083850312156122be57600080fd5b6122c783612081565b91506122d560208401612081565b90509250929050565b600181811c908216806122f257607f821691505b60208210810361231257634e487b7160e01b600052602260045260246000fd5b50919050565b60208082526025908201527f546865206c6f636b6564205342542063616e6e6f74206265207472616e736665604082015264393932b21760d91b606082015260800190565b634e487b7160e01b600052603260045260246000fd5b601f82111561072257600081815260208120601f850160051c8101602086101561239a5750805b601f850160051c820191505b818110156123b9578281556001016123a6565b505050505050565b815167ffffffffffffffff8111156123db576123db612103565b6123ef816123e984546122de565b84612373565b602080601f831160018114612424576000841561240c5750858301515b600019600386901b1c1916600185901b1785556123b9565b600085815260208120601f198616915b8281101561245357888601518255948401946001909101908401612434565b50858210156124715787850151600019600388901b60f8161c191681555b5050505050600190811b01905550565b60208082526022908201527f455243373231467265657a61626c653a20555249206973206e6f742066726f7a60408201526132b760f11b606082015260800190565b600082516124d5818460208701612005565b64173539b7b760d91b920191825250600501919050565b634e487b7160e01b600052601160045260246000fd5b600060018201612514576125146124ec565b5060010190565b6000835161252d818460208801612005565b835190830190612541818360208801612005565b01949350505050565b60208082526032908201527f4552433732313a207472616e7366657220746f206e6f6e20455243373231526560408201527131b2b4bb32b91034b6b83632b6b2b73a32b960711b606082015260800190565b6001600160a01b03858116825284166020820152604081018390526080606082018190526000906125cf90830184612029565b9695505050505050565b6000602082840312156125eb57600080fd5b8151610d6881611fd2565b60208082526025908201527f4552433732313a207472616e736665722066726f6d20696e636f72726563742060408201526437bbb732b960d91b606082015260800190565b8181038181111561054e5761054e6124ec565b634e487b7160e01b600052603160045260246000fdfea2646970667358221220707f4bf16f6c952be297883d8f5c1f83ce720e26cae15b22488f4f0298dbf6e664736f6c63430008100033",
  "devdoc": {
    "events": {
      "Locked(uint256)": {
        "details": "If a token is minted and the status is locked, this event should be emitted.",
        "params": {
          "tokenId": "The identifier for a token."
        }
      },
      "Unlocked(uint256)": {
        "details": "If a token is minted and the status is unlocked, this event should be emitted.",
        "params": {
          "tokenId": "The identifier for a token."
        }
      }
    },
    "kind": "dev",
    "methods": {
      "approve(address,uint256)": {
        "details": "See {IERC721-approve}."
      },
      "balanceOf(address)": {
        "details": "See {IERC721-balanceOf}."
      },
      "burn(uint256)": {
        "details": "Burns `tokenId`. See {ERC721-_burn}. Requirements: - The caller must own `tokenId` or be an approved operator."
      },
      "getApproved(uint256)": {
        "details": "See {IERC721-getApproved}."
      },
      "isApprovedForAll(address,address)": {
        "details": "See {IERC721-isApprovedForAll}."
      },
      "locked(uint256)": {
        "details": "SBTs assigned to zero address are considered invalid, and queries about them do throw.",
        "params": {
          "tokenId": "The identifier for an SBT."
        }
      },
      "name()": {
        "details": "See {IERC721Metadata-name}."
      },
      "owner()": {
        "details": "Returns the address of the current owner."
      },
      "ownerOf(uint256)": {
        "details": "See {IERC721-ownerOf}."
      },
      "paused()": {
        "details": "Returns true if the contract is paused, and false otherwise."
      },
      "renounceOwnership()": {
        "details": "Leaves the contract without owner. It will not be possible to call `onlyOwner` functions anymore. Can only be called by the current owner. NOTE: Renouncing ownership will leave the contract without an owner, thereby removing any functionality that is only available to the owner."
      },
      "setApprovalForAll(address,bool)": {
        "details": "See {IERC721-setApprovalForAll}."
      },
      "symbol()": {
        "details": "See {IERC721Metadata-symbol}."
      },
      "tokenByIndex(uint256)": {
        "details": "See {IERC721Enumerable-tokenByIndex}."
      },
      "tokenOfOwnerByIndex(address,uint256)": {
        "details": "See {IERC721Enumerable-tokenOfOwnerByIndex}."
      },
      "tokenURI(uint256)": {
        "details": "See {IERC721Metadata-tokenURI}."
      },
      "totalSupply()": {
        "details": "See {IERC721Enumerable-totalSupply}."
      },
      "transferOwnership(address)": {
        "details": "Transfers ownership of the contract to a new account (`newOwner`). Can only be called by the current owner."
      }
    },
    "version": 1
  },
  "userdoc": {
    "events": {
      "Locked(uint256)": {
        "notice": "Emitted when the locking status is changed to locked."
      },
      "Unlocked(uint256)": {
        "notice": "Emitted when the locking status is changed to unlocked.currently SBT Contract does not emit Unlocked event"
      }
    },
    "kind": "user",
    "methods": {
      "locked(uint256)": {
        "notice": "Returns the locking status of an Soulbound Token"
      }
    },
    "version": 1
  },
  "storageLayout": {
    "storage": [
      {
        "astId": 1379,
        "contract": "contracts/SoulboundToken.sol:SoulboundToken",
        "label": "_name",
        "offset": 0,
        "slot": "0",
        "type": "t_string_storage"
      },
      {
        "astId": 1381,
        "contract": "contracts/SoulboundToken.sol:SoulboundToken",
        "label": "_symbol",
        "offset": 0,
        "slot": "1",
        "type": "t_string_storage"
      },
      {
        "astId": 1385,
        "contract": "contracts/SoulboundToken.sol:SoulboundToken",
        "label": "_owners",
        "offset": 0,
        "slot": "2",
        "type": "t_mapping(t_uint256,t_address)"
      },
      {
        "astId": 1389,
        "contract": "contracts/SoulboundToken.sol:SoulboundToken",
        "label": "_balances",
        "offset": 0,
        "slot": "3",
        "type": "t_mapping(t_address,t_uint256)"
      },
      {
        "astId": 1393,
        "contract": "contracts/SoulboundToken.sol:SoulboundToken",
        "label": "_tokenApprovals",
        "offset": 0,
        "slot": "4",
        "type": "t_mapping(t_uint256,t_address)"
      },
      {
        "astId": 1399,
        "contract": "contracts/SoulboundToken.sol:SoulboundToken",
        "label": "_operatorApprovals",
        "offset": 0,
        "slot": "5",
        "type": "t_mapping(t_address,t_mapping(t_address,t_bool))"
      },
      {
        "astId": 2459,
        "contract": "contracts/SoulboundToken.sol:SoulboundToken",
        "label": "_ownedTokens",
        "offset": 0,
        "slot": "6",
        "type": "t_mapping(t_address,t_mapping(t_uint256,t_uint256))"
      },
      {
        "astId": 2463,
        "contract": "contracts/SoulboundToken.sol:SoulboundToken",
        "label": "_ownedTokensIndex",
        "offset": 0,
        "slot": "7",
        "type": "t_mapping(t_uint256,t_uint256)"
      },
      {
        "astId": 2466,
        "contract": "contracts/SoulboundToken.sol:SoulboundToken",
        "label": "_allTokens",
        "offset": 0,
        "slot": "8",
        "type": "t_array(t_uint256)dyn_storage"
      },
      {
        "astId": 2470,
        "contract": "contracts/SoulboundToken.sol:SoulboundToken",
        "label": "_allTokensIndex",
        "offset": 0,
        "slot": "9",
        "type": "t_mapping(t_uint256,t_uint256)"
      },
      {
        "astId": 519,
        "contract": "contracts/SoulboundToken.sol:SoulboundToken",
        "label": "_paused",
        "offset": 0,
        "slot": "10",
        "type": "t_bool"
      },
      {
        "astId": 8309,
        "contract": "contracts/SoulboundToken.sol:SoulboundToken",
        "label": "_isUriFrozen",
        "offset": 1,
        "slot": "10",
        "type": "t_bool"
      },
      {
        "astId": 8440,
        "contract": "contracts/SoulboundToken.sol:SoulboundToken",
        "label": "_mintingPaused",
        "offset": 2,
        "slot": "10",
        "type": "t_bool"
      },
      {
        "astId": 396,
        "contract": "contracts/SoulboundToken.sol:SoulboundToken",
        "label": "_owner",
        "offset": 3,
        "slot": "10",
        "type": "t_address"
      },
      {
        "astId": 620,
        "contract": "contracts/SoulboundToken.sol:SoulboundToken",
        "label": "_status",
        "offset": 0,
        "slot": "11",
        "type": "t_uint256"
      },
      {
        "astId": 5367,
        "contract": "contracts/SoulboundToken.sol:SoulboundToken",
        "label": "_tokenId",
        "offset": 0,
        "slot": "12",
        "type": "t_uint256"
      },
      {
        "astId": 5369,
        "contract": "contracts/SoulboundToken.sol:SoulboundToken",
        "label": "_baseTokenURI",
        "offset": 0,
        "slot": "13",
        "type": "t_string_storage"
      },
      {
        "astId": 5373,
        "contract": "contracts/SoulboundToken.sol:SoulboundToken",
        "label": "_addressToMinted",
        "offset": 0,
        "slot": "14",
        "type": "t_mapping(t_address,t_uint256)"
      },
      {
        "astId": 5377,
        "contract": "contracts/SoulboundToken.sol:SoulboundToken",
        "label": "_locked",
        "offset": 0,
        "slot": "15",
        "type": "t_mapping(t_uint256,t_bool)"
      }
    ],
    "types": {
      "t_address": {
        "encoding": "inplace",
        "label": "address",
        "numberOfBytes": "20"
      },
      "t_array(t_uint256)dyn_storage": {
        "base": "t_uint256",
        "encoding": "dynamic_array",
        "label": "uint256[]",
        "numberOfBytes": "32"
      },
      "t_bool": {
        "encoding": "inplace",
        "label": "bool",
        "numberOfBytes": "1"
      },
      "t_mapping(t_address,t_bool)": {
        "encoding": "mapping",
        "key": "t_address",
        "label": "mapping(address => bool)",
        "numberOfBytes": "32",
        "value": "t_bool"
      },
      "t_mapping(t_address,t_mapping(t_address,t_bool))": {
        "encoding": "mapping",
        "key": "t_address",
        "label": "mapping(address => mapping(address => bool))",
        "numberOfBytes": "32",
        "value": "t_mapping(t_address,t_bool)"
      },
      "t_mapping(t_address,t_mapping(t_uint256,t_uint256))": {
        "encoding": "mapping",
        "key": "t_address",
        "label": "mapping(address => mapping(uint256 => uint256))",
        "numberOfBytes": "32",
        "value": "t_mapping(t_uint256,t_uint256)"
      },
      "t_mapping(t_address,t_uint256)": {
        "encoding": "mapping",
        "key": "t_address",
        "label": "mapping(address => uint256)",
        "numberOfBytes": "32",
        "value": "t_uint256"
      },
      "t_mapping(t_uint256,t_address)": {
        "encoding": "mapping",
        "key": "t_uint256",
        "label": "mapping(uint256 => address)",
        "numberOfBytes": "32",
        "value": "t_address"
      },
      "t_mapping(t_uint256,t_bool)": {
        "encoding": "mapping",
        "key": "t_uint256",
        "label": "mapping(uint256 => bool)",
        "numberOfBytes": "32",
        "value": "t_bool"
      },
      "t_mapping(t_uint256,t_uint256)": {
        "encoding": "mapping",
        "key": "t_uint256",
        "label": "mapping(uint256 => uint256)",
        "numberOfBytes": "32",
        "value": "t_uint256"
      },
      "t_string_storage": {
        "encoding": "bytes",
        "label": "string",
        "numberOfBytes": "32"
      },
      "t_uint256": {
        "encoding": "inplace",
        "label": "uint256",
        "numberOfBytes": "32"
      }
    }
  }
}